:10000000A8C0C2C0EEC0C0C09CCABEC0BDC0BCC0FB
:10001000BBC0BAC0B9C0B8C0B7C0B6C0B5C00EC4C6
:100020000FC41DC424C42AC42EC431C434C437C46C
:100030003EC439C405010902A1010901A1008501DD
:100040000509190129031500250195037501810290
:1000500095017505810305010930093109381581BC
:10006000257F750895038106C0C005010906A10119
:10007000850275019508050719E029E71500250196
:10008000810295017508810395057501050819011F
:1000900029059102950175039103950575081500D1
:1000A00026A400050719002AA4008100C0050C0938
:1000B00001A101850319002A3C021500263C029586
:1000C0000175108100C005010980A1018504950119
:1000D000750215012503098209810983816075066E
:1000E0008103C009022200010100803209040000DE
:1000F000010300000009210101000122AF000705F2
:10010000810308000A12011001000000088117ABEA
:100110002400010102000124035400720069006EF2
:10012000006B006500740020004800490044002076
:100130000043006F006D0062006F00120341006415
:100140000061006600720075006900740004030914
:10015000040011241FBECFE5D2E0DEBFCDBF10E00A
:10016000A0E6B0E0E8EDF6E102C005900D92A63FF2
:10017000B107D9F721E0A6EFB0E001C01D92A43984
:10018000B207E1F7BED9A6CA3BCFA82FB92F80E0AE
:1001900090E041E050EA609530E009C02D9182275F
:1001A0009795879510F084279527305EC8F36F5F89
:1001B000A8F30895EADF8D939D930895A6E088271C
:1001C0009927AA9569F00197E1F3B399FCCFB39B06
:1001D000FECF81E09927A6B3019611F0A871D9F757
:1001E0000895CF93CFB7CF93C395B39BE9F7B39B54
:1001F0000BC0B39B09C0B39B07C0B39B05C0B39BA7
:1002000003C0B39B01C0D5C00F92DF93C0917701AB
:10021000DD27C258DE4F012EB39B03C0DF910F9044
:10022000E6CF2F930F931F934F932FEF4F6F06B38C
:1002300003FB20F95F933F9350E03BE065C016B3AA
:100240000126502953FDC89556B3012703FB25F914
:100250002F7306B3B1F05027102713FB26F906B20F
:100260002230F0F000C016B3012703FB27F9012666
:10027000502906B22430E8F54F77206816B3000005
:10028000F6CF50274F7D206206B2102F000000C02D
:1002900006B300265029102713FB26F906B2E2CF39
:1002A0004F7B06B3206400C0DACF012650291871B5
:1002B00006B269F14E7F2160012F16B328C00026D7
:1002C00050294D7F06B22260102F29C001265029E7
:1002D0004B7F06B22460012F2DC016B30126502992
:1002E000477F2860000006B22EC04F7E06B3206113
:1002F00030C0422706B3499300265029102706B282
:100300004FEF13FB20F9297F16B379F2187159F1D9
:100310000126502906B2012703FB21F9237F06B3EA
:1003200071F2002650293150D0F006B2102713FB8D
:1003300022F9277E16B351F201265029012703FB2B
:1003400006B223F92F7C49F2000006B3102713FBF5
:1003500024F90026502906B22F7939F270CF10E225
:100360001ABF002719C03B503195C31BD04010E283
:100370001ABF0881033C09F10B34F9F02091750193
:100380001981110F1213EDCF4A81441F093651F123
:100390000D3211F0013E29F700937C013F915F91EE
:1003A0004F911F910F912F91DF910F90CAB7C5FD0B
:1003B0001BCFCF91CFBFCF91189520917C012223E5
:1003C00069F310917A01112379F534307AF1309381
:1003D0007A0120937601109177013BE0311B309335
:1003E000770124C000917A010130F4F40AE54F70DE
:1003F00049F430916A0034FD1AC000936A00CEE5DA
:10040000D1E019C03091690134FD11C00093690138
:10041000CAE6D1E010C0052710E000C021C00527C2
:1004200010E0C89508BB14C03AE501C032ED032EB8
:10043000C0E0D0E032E017B31861C39A08B317BB2D
:1004400058E120E84FEF20FF052708BB27951795B7
:100450001C3F28F700004552B0F720FF05272795DD
:1004600008BB17951C3FB8F629913A9561F7077EAE
:1004700010917B01110F08BBC250D04011F01093B6
:10048000750110E21ABF086017B3177E402F477E30
:1004900054E05A95F1F708BB17BB48BB7FCFCF9309
:1004A000DF9381E090E0ECD88093450182E090E01A
:1004B000E7D88093440183E090E0E2D88093430141
:1004C00084E090E0DDD88093420185E090E0D8D8C8
:1004D00080934101C2D47CD8EB017AD86C1B7D0B90
:1004E000603A7F4010F4FBD5F8CFDF91CF910895AB
:1004F00060E080E0BEC48AE0BCC5FC0180818F5F03
:10050000681710F08083089510820895FF920F936A
:100510001F93CF93DF93EC018B018091110190E049
:100520008E5A9F4FADD8F82E6CEA81E191E0E5DF5D
:10053000B8016C1B7D0B8F2D90E078D8292F30E00F
:10054000C9018C0F9D1FDF91CF911F910F91FF90DB
:100550000895DF92EF92FF920F931F93CF93DF9353
:10056000182F811103C0D090440104C0813011F4D0
:10057000D090420121E02D1518F02AD8EB0114C0CB
:1005800034E03D1528F0C0913F01D09140010CC0EE
:1005900086E08D1528F0C0913D01D0913E0104C048
:1005A000C0913B01D0913C01809166008823F1F01D
:1005B000109266004091440150E0440F551FFA012B
:1005C000EE52FF4F60817181FA01E054FF4F80814C
:1005D00091819CDF90930C0180930B0110920E018E
:1005E00010920D01D0930801C0930701812F90E074
:1005F000880F991F8C01095F1E4FF80120813181FE
:10060000AE01421B530B9C01255F3E4F7901F9015E
:100610008081918148175907B8F02D2D30E0220FC5
:10062000331FF901EE52FF4F60817181F901E054EF
:10063000FF4F808191816ADFF70191838083F80108
:10064000D183C08381E001C080E0DF91CF911F9111
:100650000F91FF90EF90DF90089587E40AC56FE750
:1006600070E080E290E052DF04C51F93CF93DF93E8
:100670001F92CDB7DEB76BE070E081E090E046DF1F
:1006800010E0181728F48983EADF1F5F8981F9CF0A
:100690000F90DF91CF911F91089569E380E0E9D336
:1006A00027CF82E0F9D324CFCF9360E870E081E8D0
:1006B0009FEF2CDFC82F60E870E081E89FEF26DF16
:1006C00020E040E06C2FCF91C9C3CF9380913301DC
:1006D00081110DC083E391E018D7892B41F078D7C1
:1006E000709305016093040183E391E017D770D7FD
:1006F0002091040130910501AB01421B530B4B3398
:100700005105A0F070930501609304016BE070E067
:1007100086EF9FEFFBDEC82F6BE070E086EF9FEF68
:10072000F5DE20E040E06C2FCF9198C3CF91089583
:1007300080912B0181110DC08BE291E0E6D6892BCF
:1007400041F046D770930301609302018BE291E080
:10075000E5D63ED72091020130910301AB01421B47
:10076000530B4533510548F0709303016093020128
:1007700020E040E061E08EEF71C30895CF93DF93F6
:10078000EC01CE017DD7882319F073D42196F9CFDF
:10079000DF91CF9108958CEA91E0F0CF80914501EF
:1007A000813009F45CCF823009F45FCF833009F4E3
:1007B000F2CF843009F451CF853029F48091410182
:1007C0008B3081F06ACF863051F46BE070E081E0CD
:1007D00090E09CDE20E0482F60E080E03FC387305F
:1007E00009F45FCF0895CF93DF931F92CDB7DEB7A3
:1007F000909141019A3089F490913D012091060138
:10080000392F321B3F3048F09093060190914601FA
:10081000911103C0898341DF8981882309F447C08E
:1008200081E0809367008091410190E0FC01319765
:10083000EB30F105E0F5E15FFF4F09946BE009C093
:1008400080914301811104C084E0809343012FC053
:1008500067E083E491E00F90DF91CF914ECE67E0A7
:1008600085E491E04ADE0F90DF91CF9197CF8091A0
:10087000460181111CC01092670019C08091460189
:100880008111F9CF14C00F90DF91CF91E8CE0F9076
:10089000DF91CF91EACE0F90DF91CF917CCF0F9077
:1008A000DF91CF91DACE0F90DF91CF91FACE0F90FA
:1008B000DF91CF910895CF93DF93EC018991882345
:1008C00011F0D7D3FBCFDF91CF910895CF93DF9372
:1008D00000D000D0CDB7DEB74AE0BE016F5F7F4FDA
:1008E00090E0B5D6CE010196E6DF0F900F900F9005
:1008F0000F90DF91CF9108958DE191E03FDF8091DE
:100900004501E4CF8EE291E039DF80914301DECFF3
:100910008CE391E033DF80914101D8CF89E491E00D
:100920002DDF80914401D2CF90914501973069F439
:1009300020914401243048F4813021F420931001A7
:1009400080930F0124E020934401823011F410922F
:100950000F01911108C080910F01882321F080912F
:10096000100180934401DACF8FE591E007DF809199
:100970004201ACCFC1DFBFDDD1DFC4DFF5DFC8CFBF
:1009800083E791E0FBDE6091450181E090E080D655
:100990006091440182E090E07BD66091430183E066
:1009A00090E076D66091420184E090E071D660914B
:1009B000410185E090E06CD6DDDF83EA91E0DEDE88
:1009C00081E0809366000895CF93DF93EC018881E6
:1009D0008823C1F0813031F46BE083E491E08DDD58
:1009E00091DF0FC0823031F468E082E491E085DD70
:1009F000BBDF07C0833029F46BE081E491E07DDD4B
:100A000087DF18828981882379F1813051F467E08A
:100A100085E491E072DD70DF85E790E04CDF81E0F6
:100A200008C0823041F468E084E491E066DD63DD73
:100A300082E07ADF18C0833011F45DDD12C08A30A5
:100A400091F482E08093450183E080934401809398
:100A500043011092420181E0809341018FEF90E0C9
:100A60008DDE88DF48DD1982DF91CF910895EF9206
:100A7000FF920F931F93CF93DF93CDB7DEB72A97E3
:100A80000FB6F894DEBF0FBECDBFF82E85E0EBE6C3
:100A9000F0E0DE01169601900D928A95E1F785E06F
:100AA000E0E7F0E0DE01119601900D928A95E1F702
:100AB0008091230181110DC083E291E026D5892B1D
:100AC00041F086D5709301016093000183E291E0CB
:100AD00025D57ED50F2D10E0209100013091010128
:100AE000AB01421B530BFE01E00FF11F268130E0EA
:100AF0004217530708F455C0709301016093000139
:100B0000E090FF00F801EF50FF4F20818E2D90E024
:100B1000820F911DB5D5982FE1E0F0E0EC0FFD1F9D
:100B2000E00FF11F4081682F772767FD709554E033
:100B3000759567955A95E1F7842F6FD5382F892FD2
:100B400093FF02C0806F01C08F70642F66D5F110D3
:100B500004C090914701915007C092E0F91619F036
:100B600094E0F91208C095E02091FE002F5F29174C
:100B7000A8F01092FE00E394E092FF0020E040E035
:100B8000682F832F6BD1F801E451FF4F9091FF0044
:100B90008081981730F01092FF0003C02093FE0070
:100BA000EDCF2A960FB6F894DEBF0FBECDBFDF9112
:100BB000CF911F910F91FF90EF900895CF93909157
:100BC0004301913011F470DD11C0923011F47DDDDC
:100BD0000DC0933011F4ACDD09C0983028F4925068
:100BE00090934701C0E002C0C9EFC90F8091430153
:100BF000843018F08C2FCF913ACFCF9108953F9247
:100C00004F925F926F927F928F929F92AF92BF921C
:100C1000CF92DF92EF92FF920F931F93CF93DF93C8
:100C200000D0CDB7DEB75C014B013CD281FB9927E8
:100C300090F9092F017009839093460182FB1127D7
:100C400010F91A8380911B0181110CC08BE191E096
:100C50005CD4892B39F00093FC001093FD008BE1EC
:100C600091E05CD4CE0101966C016CEF662E60E0E1
:100C7000762E06EF10E078EFE72E70E0F72E412C8D
:100C8000512C33243394F60181916F01F30190814B
:100C9000891771F080839CD4F70171836083F80118
:100CA00080818F5F8083411014C0F401308211C0B5
:100CB0008FD4F70120813181621B730B6E3E72402D
:100CC00040F0F8018081F501E40DF51D8083F80105
:100CD0001082FFEF4F1A5F0A8FEF681A780A0F5FD2
:100CE0001F4F92E0E90EF11CE2E04E16510459F656
:100CF0000F900F90DF91CF911F910F91FF90EF9088
:100D0000DF90CF90BF90AF909F908F907F906F902B
:100D10005F904F903F900895CF93DF931F92CDB790
:100D2000DEB7DDD155D42091190130911A01621B33
:100D3000730B683C710578F080913F019091400100
:100D400001969093400180933F0128533F4F309389
:100D50001A012093190120911701309118018091F7
:100D60003F0190914001821B930B059778F0809191
:100D70003D0190913E01019690933E0180933D018B
:100D80002B5F3F4F309318012093170120911501DD
:100D90003091160180913D0190913E01821B930B91
:100DA0000F9778F080913B0190913C0101969093D0
:100DB0003C0180933B01215F3F4F3093160120930C
:100DC00015011982BE016F5F7F4F83E191E017DF4C
:100DD000809114018530B9F41092140180911201B0
:100DE00091E0892780931201882361F088E790E0E1
:100DF00062DD84EE90E05FDD8CE890E05CDDBADDE2
:100E00007ADB01C0BDDD80911201882321F083E1EE
:100E100091E0DADD0EC080914501882321F080E069
:100E200098DB8111BBDC80914101882311F089811D
:100E3000DADC80914301882361F080916700882388
:100E400041F080914201882319F081E082DB811119
:100E5000B5DE0F90DF91CF91089527C1E6E5F1E06F
:100E60008283638344832093570181E0808385E0FC
:100E700037C192E090935601809357011092580128
:100E80006093590110925A0110925B0110925C011B
:100E900010925D0188E024C1EF92FF920F931F939F
:100EA000CF93DF93F82E06E511E034E0E32EF8014E
:100EB000E082C7E5D1E0888382E012D1F801E082C8
:100EC000F88282E0DF91CF911F910F91FF90EF9018
:100ED00007C1CF93DF931F92CDB7DEB76983DA01E5
:100EE000F90110821C929FEB980F9A3130F48D53C8
:100EF0008083898181FDB9C0B6C09FE9980F9A317E
:100F000030F48D558083898181FFAFC0ACC090EDF6
:100F1000980F9A3038F4803311F487E201C083517E
:100F20008083A3C08F3209F481C0B0F5863209F402
:100F300065C0E0F4813209F457C058F48A3009F4EE
:100F400079C0803209F474C0893009F075C09BE221
:100F500072C0833209F44CC008F462C0843209F4D0
:100F600049C0853209F068C092E265C08A3209F44E
:100F700047C038F4883209F445C008F451C097E2FC
:100F80005AC08C3209F44EC008F442C08D32F1F1DF
:100F90008E3209F449C050C08C3509F43FC090F43A
:100FA0008D33B1F138F48A3308F446C08C33D0F570
:100FB00093E341C08F33D1F1B8F18034B9F08B3570
:100FC00049F13AC0803601F120F48E35A9F020F1C4
:100FD0001DC08C3719F118F48B37E1F02DC08D3717
:100FE000D9F08E3789F028C09EE125C09FE123C04B
:100FF00090E221C091E21FC093E21DC094E21BC0A9
:1010000095E219C096E217C095E315C09DE213C0A2
:101010009EE211C09FE20FC090E30DC091E30BC0B0
:1010200094E309C096E307C097E305C098E303C0C3
:101030009CE201C098E290839FED980F963098F063
:1010400098ED980F943078F092EC980F933058F018
:1010500095E8980F943038F08A3329F08C3319F0E2
:101060008E55823010F482E08C930F90DF91CF91F7
:101070000895CF93DF9300D0CDB7DEB79E012F5FE9
:101080003F4FAE014E5F5F4F6091480122DF6981A3
:101090008A81EFDE60E080E0ECDE0F900F90DF9160
:1010A000CF910895809148010895F89480E090E0F0
:1010B00020E80FB6F89426BD86BD0FBE88B3877EA4
:1010C00088BBBB9A27EA86E99CE02150804090408B
:1010D000E1F700C00000BB9809D278940895D8C009
:1010E000CF93DF931F92CDB7DEB78983D1D0909194
:1010F0006901898194FFF9CF682F86E591E00F900F
:10110000DF91CF91A1C0FC0181E080934A018081F1
:101110008076803209F04EC081818330A1F040F4A6
:101120008130E9F0823009F045C088E690E00DC0DA
:101130008A3029F08B3079F08930E1F532C0838133
:101140008093680037C089E491E09093790180939F
:10115000780181E008958381809349012BC086E561
:1011600091E0909379018093780182818093560178
:1011700010925D0110925C0110925B0110925A0175
:1011800010925901109258011092570182818130BA
:1011900099F0823099F0833091F0843079F482E0D4
:1011A000089581E0268137812230310509F080E001
:1011B0008195089580E0089585E0089588E0089578
:1011C000FC0181818093480181E00895DF92EF92D4
:1011D000FF920F931F93CF93DF93C8E0D0E0F12CE1
:1011E00080E8E82EDF2CDE0CD1BEE8D78C0104337A
:1011F00089E018070CF4FD2CE694219799F78FEFFE
:101200008F0D81BFCF2DD0E0219681B790E0C81718
:10121000D9078CF0D3D78453994097FF03C0919599
:10122000819591098017910714F4F1B68C0181B76B
:101230008F5F81BFEACFF1BEDF91CF911F910F91F8
:10124000FF90EF90DF900895CF93C62F2091690112
:1012500024FF07C020916A0138E8232720936A0100
:1012600003C02AE520936901DC01EBE6F1E09C2F45
:101270009E0F8D918193892F8E1B1816D4F36C2F9E
:101280008BE691E097D7CC5FC0936901CF91089529
:10129000CF93DF9360917A01635067FDBCC080916A
:1012A0007701CCE0D0E0C81BD109C258DE4F809155
:1012B00076018D3209F09EC0683009F0AAC083EC37
:1012C00080935E018AE580936A0010924C018881C8
:1012D000807619F0CE0117DF7AC09A8110926701EB
:1012E0008981811106C01092680127E631E082E011
:1012F0006AC0853019F490937B0162C0863009F092
:1013000049C08B81813019F485E091E01AC08230A8
:1013100041F483EE90E0909379018093780182E22A
:1013200035C08330F1F4911108C08DE491E09093C1
:1013300079018093780184E029C0913041F48BE3F6
:1013400091E0909379018093780182E11FC09230FF
:10135000E1F487E191E0909379018093780184E250
:1013600015C0813241F485EF90E09093790180932C
:10137000780189E00BC0823241F484E390E09093DD
:101380007901809378018FEA01C080E090E4909326
:101390004C011DC0883069F0893019F490937D01AB
:1013A0000FC08A3049F08B3059F48BE480936A0186
:1013B00007C02DE731E002C027E631E081E003C03D
:1013C00027E631E080E030937901209378018F3F68
:1013D00039F4988197FD8E8190E890934C0107C075
:1013E0009F81911104C09E81981708F4892F8093E2
:1013F00069000FC080914C0187FF0BC0CE01E0DE79
:101400008F3F21F48EE180936A0003C08111109216
:10141000690010927A0180916A0084FF4CC080912B
:1014200069008F3F09F447C0C82F893008F0C8E031
:101430008C1B8093690080915E0198E889278093D6
:101440005E01CC2361F18091780190917901209126
:101450004C0126FF12C0AFE5B1E02EE531E020954A
:101460003095280F391F4C2F4A0FF901EA0FFB1F47
:10147000E491ED934A13F9CF09C0EFE5F1E0DC0107
:101480002C2F2E0F3D9131932E13FCCF01962FEF71
:101490002C0F820F911D90937901809378016C2F0E
:1014A0008FE591E087D6CC5FCC3019F08FEF809339
:1014B0006900C0936A0084E196B3987131F4815059
:1014C000D9F710927B0110927501C1E08111C0E043
:1014D00080914B018C1739F0C11103C0F89476DE6E
:1014E0007894C0934B01DF91CF910895AC9A8BB75C
:1014F00080628BBF8BE480936A018AE580936901E7
:10150000089572D0CCD708DCFECFFC0181E090E0DA
:101510002081222311F080E090E0089521E0FC0179
:101520002083089583B7887F83BF8AB58C7F8160CD
:101530008ABD83B7877F83BF83B7887F836083BF7C
:10154000089578941F920F920FB60F9211242F9343
:101550003F938F939F93AF93BF9380914E01909150
:101560004F01A0915001B091510130914D012CE7F4
:10157000230F2D3728F02FEF230F0196A11DB11D4A
:1015800020934D0180934E0190934F01A093500101
:10159000B09351018091520190915301A091540157
:1015A000B09155010196A11DB11D809352019093F8
:1015B0005301A0935401B0935501BF91AF919F91F6
:1015C0008F913F912F910F900FBE0F901F90189504
:1015D0002FB7F89460914E0170914F0180915001A6
:1015E000909151012FBF0895789480B7806880BF93
:1015F00080B7806480BF8CB580648CBD8FEF8DBD5B
:1016000080B7807F876080BF89B7846089BF8ADFA9
:1016100086B1876086B9379A0895002480FD060E4A
:10162000660F11F08695D1F7802D08950024552777
:1016300004C0080E591F880F991F009729F076954E
:101640006795B8F37105B9F7802D952F0895BB27DD
:10165000FB015527AA27880F991FAA1FA41710F06E
:10166000A41B83955051B9F7A05DAA3308F0A95D7A
:10167000A193009779F7B111B1931192CB011AC0E0
:10168000E199FECF9FBB8EBBE09A99278DB3089559
:10169000262FE199FECF9FBB8EBBE09A01970DB23A
:1016A000021639F01CBA2DBB0FB6F894E29AE19AF3
:1016B0000FBE0895DC01FC01672F71917723E1F7DC
:1016C000329704C07C916D9370836291AE17BF070F
:0816D000C8F30895F894FFCF60
:1016D80000009401800001017DFF5A1305110303E6
:1016E80014020C02022C20000A0A436F6D707574F4
:1016F80061205072616E6B73746120002C206279D6
:10170800204761627269656C20537461706C6573FF
:101718002C207777772E456C656374726963524322
:1017280041697263726166744775792E636F6D00E3
:10173800000000000000000032001E003C00140001
:101748003C006400C8000A00320096003C002C01EE
:101758003C00F00076302E39332E30000214042875
:061768000A06081C2048DF
:00000001FF
