:1000000015C12FC15BC12DC1BAC32BC12AC129C1E2
:1000100028C127C126C125C124C123C122C1ED00A9
:10002000DC00CE00C100AB00970067005E00570007
:10003000460034000A536C65657042746E507265F8
:100040007373656420000A4361707342746E50726A
:100050006573736564200068656C6C6F20000A44EA
:100060004F4E45210A0A000A0A536176696E6720DD
:1000700073657474696E6773202620657869746986
:100080006E672070726F6772616D6D696E67206D4B
:100090006F64652E2E2E000A74696D696E674D6F50
:1000A00064654D6F757365203D200074696D696EE0
:1000B000674D6F64654B6579626F617264203D20A6
:1000C000000A636170734D6F6465203D20000A6D06
:1000D0006F7573654D6F6465203D20000A6B65790F
:1000E000626F6172644D6F6465203D20000A416C4F
:1000F0006C206D6F64657320726573657420746F16
:100100002064656661756C74732E0002001400042F
:100110000028000A00AD001A0206020202DA01D02D
:10012000012301759BEA7EB4F665BD52F7126C108F
:10013000F2875C948B9215CE9F9B2275062384B127
:10014000F609C4589151325B906B6A49844F0DA8EF
:100150009A62F6673DC0568F3015ABC8C2A0CC7905
:100160003DDEB1E38D50215D00FCCC530C63E8898A
:10017000B6E90C99FA276626071CC760B90B1EE181
:100180009FB3709E9746B3B76AC7325062CC7586EC
:100190006BC2714C091503A5248BE8945EE6767654
:1001A000A2FEDD9C86689B07768CD81DF5D370A9CE
:1001B000D59D7385812E66603D1CE0D3E2F995A93B
:1001C000883CD22E0FDE65651A5E1B64B2F837A23A
:1001D0002660B427BCB429BC602A0F1D2C4C6D7F4F
:1001E00072644617F7C7A79696A6C5E4F3010FFDFC
:1001F000ECCBAA9A9AA9C9F9194A6C7E7163442476
:1002000013011001F00FF6D6B5A3A1AFADBBDAFA1A
:100210001A3A5B6D6F616355361610F001020408DF
:1002200010200101010101010038003711241FBE17
:10023000CFE5D2E0DEBFCDBF10E0A0E6B0E0E2E95E
:10024000F9E002C005900D92A836B107D9F720E079
:10025000A8E6B0E001C01D92A43BB207E1F76FD25F
:1002600096C3CECEA82FB92F80E090E041E050EAAF
:10027000609530E009C02D9182279795879510F001
:1002800084279527305EC8F36F5FA8F30895EADFEF
:100290008D939D930895A6E088279927AA9569F0E4
:1002A0000197E1F3B399FCCFB39BFECF81E099278F
:1002B000A6B3019611F0A871D9F70895CF93CFB7DF
:1002C000CF93C395B39BE9F7B39B0BC0B39B09C016
:1002D000B39B07C0B39B05C0B39B03C0B39B01C0D6
:1002E000D5C00F92DF93C0919700DD27C256DF4F34
:1002F000012EB39B03C0DF910F90E6CF2F930F9396
:100300001F934F932FEF4F6F06B303FB20F95F93BB
:100310003F9350E03BE065C016B30126502953FDE2
:10032000C89556B3012703FB25F92F7306B3B1F027
:100330005027102713FB26F906B22230F0F000C038
:1003400016B3012703FB27F90126502906B22430F2
:10035000E8F54F77206816B30000F6CF50274F7DA1
:10036000206206B2102F000000C006B300265029FC
:10037000102713FB26F906B2E2CF4F7B06B32064A9
:1003800000C0DACF01265029187106B269F14E7FFC
:100390002160012F16B328C0002650294D7F06B2D8
:1003A0002260102F29C0012650294B7F06B22460FD
:1003B000012F2DC016B301265029477F2860000069
:1003C00006B22EC04F7E06B3206130C0422706B36E
:1003D000499300265029102706B24FEF13FB20F94E
:1003E000297F16B379F2187159F10126502906B206
:1003F000012703FB21F9237F06B371F20026502960
:100400003150D0F006B2102713FB22F9277E16B325
:1004100051F201265029012703FB06B223F92F7C54
:1004200049F2000006B3102713FB24F900265029D7
:1004300006B22F7939F270CF10E21ABF002719C027
:100440003B503195C31BD04010E21ABF0881033CDA
:1004500009F10B34F9F0209195001981110F121355
:10046000EDCF4A81441F093651F10D3211F0013EA2
:1004700029F700939C003F915F914F911F910F913D
:100480002F91DF910F90CAB7C5FD1BCFCF91CFBF82
:10049000CF91189520919C00222369F310919A0026
:1004A000112379F534307AF130939A002093960035
:1004B000109197003BE0311B3093970024C00091CE
:1004C0009A000130F4F40AE54F7049F43091660067
:1004D00034FD1AC000936600CEE7D0E019C0309119
:1004E000890034FD11C000938900CAE8D0E010C033
:1004F000052710E000C021C0052710E0C89508BB03
:1005000014C03AE501C032ED032EC0E0D0E032E085
:1005100017B31861C39A08B317BB58E120E84FEF2F
:1005200020FF052708BB279517951C3F28F70000DB
:100530004552B0F720FF0527279508BB17951C3FAC
:10054000B8F629913A9561F7077E10919B00110F3B
:1005500008BBC250D04011F01093950010E21ABFB2
:10056000086017B3177E402F477E54E05A95F1F785
:1005700008BB17BB48BB7FCFCF92DF92EF92FF92B1
:100580000F931F9380916D00811111C08DE690E053
:10059000DAD0892B61F03AD16093690070936A00D8
:1005A00080936B0090936C008DE690E0D5D02ED1B7
:1005B0000091690010916A0020916B0030916C00ED
:1005C0006B017C01C01AD10AE20AF30A42E3C416A5
:1005D000D104E104F104C0F10E5C1F4F2F4F3F4FD7
:1005E0006B017C01C01AD10AE20AF30A42E3C41685
:1005F000D104E104F10448F40093690010936A0007
:1006000020936B0030936C000DC0DC01CB01C297CE
:10061000A109B1098093690090936A00A0936B00CF
:10062000B0936C006091680081E068276093680077
:1006300080E06CD16091680081E01F910F91FF9084
:10064000EF90DF90CF9062C11F910F91FF90EF90DC
:10065000DF90CF900895BF92CF92DF92EF92FF92FA
:100660000F931F93CF93DF93DDD062E081E090E0A2
:100670007CD163E082E090E078D163E083E090E0B9
:1006800074D160E084E090E070D161E085E090E0BA
:100690006CD161E08FEF91E068D100E010E0C6E03E
:1006A000D0E0F801E55FFE4FE590F490B12CC80171
:1006B000895E9E4F6C018B2D90E08E159F0560F436
:1006C000F60165917491FB01E80FF91F64918C0F9D
:1006D0009D1F4BD1B394EFCFCE0DDF1D0E5F1F4F8B
:1006E0000C301105F1F60EE110E0F12C8F2D90E0A9
:1006F000F80165917491FC01E60FF71FE4906E2DEF
:100700008C0F9D1F32D1F394E110F0CFCF0DD11D8E
:100710000E5F1F4F90E00433190739F7DF91CF9137
:100720001F910F91FF90EF90DF90CF90BF907AC014
:1007300061E080E0B4D061E081E0B1D08CCF96D0B0
:10074000F7DF1ADFFECFFC0181E090E02081222359
:1007500011F080E090E0089521E0FC0120830895ED
:1007600083B7887F83BF8AB58C7F81608ABD83B75A
:10077000877F83BF83B7887F836083BF0895789422
:100780001F920F920FB60F9211242F933F938F93C6
:100790009F93AF93BF938091760090917700A09143
:1007A0007800B0917900309175002CE7230F2D3738
:1007B00028F02FEF230F0196A11DB11D2093750086
:1007C0008093760090937700A0937800B09379009F
:1007D00080917A0090917B00A0917C00B0917D0087
:1007E0000196A11DB11D80937A0090937B00A09388
:1007F0007C00B0937D00BF91AF919F918F913F910D
:100800002F910F900FBE0F901F9018952FB7F8944F
:1008100060917600709177008091780090917900D6
:100820002FBF08953FB7F89480917A0090917B0094
:10083000A0917C00B0917D002FB508B602FE05C0E6
:100840002F3F19F00196A11DB11D3FBF6627782FDC
:10085000892F9A2F620F711D811D911D42E0660F35
:10086000771F881F991F4A95D1F70895789480B70C
:10087000806880BF80B7806480BF8CB580648CBD89
:100880008FEF8DBD80B7807F876080BF89B7846020
:1008900089BF66DF86B1876086B9379A0895CF939E
:1008A000DF9390E0FC01E45EFD4F2491FC01EE5DDE
:1008B000FD4F8491882339F190E0FC01E65DFD4F06
:1008C000A491B0E0FC01E85DFD4F8491611106C088
:1008D0009FB7F8948C912095822313C0623069F4FD
:1008E000C82FD0E09FB7F8948C91322F3095832396
:1008F0008C938881822B888305C09FB7F8948C9154
:10090000822B8C939FBFDF91CF910895A82FB0E0E9
:10091000FD01E45EFD4F9491FD01EE5DFD4FE4911C
:10092000EE2311F1811103C08AB58F7304C08130A9
:1009300021F48AB58F7C8ABD05C0843019F48CB54A
:100940008F7C8CBDF0E0E85DFD4FA491B0E02FB747
:10095000611105C0F8948C919095892303C0F89497
:100960008C91892B8C932FBF0895262FE199FECF70
:100970009FBB8EBBE09A01970DB2021639F01CBAEC
:100980002DBB0FB6F894E29AE19A0FBE0895F89441
:02099000FFCF97
:080992000000B40080005A00CF
:00000001FF
